:060000000A128A110C280F
:10000800FE00030EF0000A08F1000A128A110E2FF2
:100018000A128A110F280A128A1140270A128A1115
:10002800EF0083132030840056300A128A113827D3
:100038000A128A11FB01FA0183010A128A11872E1A
:100048005B3084000530FF0083138001840AFF0BB6
:100058002828273083120313570210300319560239
:10006800031C37283828652805305802031C3D280A
:100078003E2865281030F2002730F3005608D900D2
:10008800DA015908F4005A08F5000A128A11DF2328
:100098000A128A11720883120313DB001030F2006F
:1000A8002730F3005708F5005608F4000A128A11A1
:1000B800B8250A128A11730883120313D70072082D
:1000C800D60003305702E83003195602031C6D2886
:1000D8006E289B2804305802031C732874289B2818
:1000E800E830F2000330F3005608D900DA01590865
:1000F800F4005A08F5000A128A11DF230A128A113D
:10010800720883120313DC00E830F2000330F300B6
:100118005708F5005608F4000A128A11B8250A1281
:100128008A11730883120313D7007208D6000030AF
:100138005702643003195602031CA328A428D128A7
:1001480003305802031CA928AA28D1286430F200D9
:100158000030F3005608D900DA015908F4005A08AB
:10016800F5000A128A11DF230A128A117208831213
:100178000313DD006430F2000030F3005708F50087
:100188005608F4000A128A11B8250A128A1173084F
:1001980083120313D7007208D600003057020A30C2
:1001A80003195602031CD928DA28072902305802F5
:1001B800031CDF28E02807290A30F2000030F3008A
:1001C8005608D900DA015908F4005A08F5000A124D
:1001D8008A11DF230A128A11720883120313DE00C0
:1001E8000A30F2000030F3005708F5005608F40012
:1001F8000A128A11B8250A128A1173088312031386
:10020800D7007208D6005608570403190C290D297F
:100218001429580803191129122914295608DF002E
:10022800580803191829192934295808053CE100E8
:100238002E2961085B3E840083130008303EE000ED
:1002480060080A128A1159260A128A11013083128B
:100258000313E10705306102031C332934291D29E2
:100268000800F829061939293A2950290130C907FF
:100278000318CA0A0030CA0703304A02E8300319D3
:100288004902031C48294929082AC901CA01013021
:1002980083120313D107082AC901CA01082A061DB7
:1002A8005629572950290130C9070318CA0A0030AE
:1002B800CA0700304A02643003194902031C652941
:1002C8006629082AC901CA0106080139D0006F0841
:1002D800FB00F2010C300A128A11ED240A128A116D
:1002E8000E300A128A117A250A128A117A144B29B9
:1002F800060801395006031982298329C0290608EE
:100308000139D000861889298B2901308C290030C1
:10031800E2000618902992290130932900306206DC
:10032800031997299829B1290130FB0765307B0209
:10033800031C9F29A029A2296430FB007B08E20046
:10034800E3016208D6006308D7000330D8000A1218
:100358008A1124200A128A11B9297B080319B529A0
:10036800B629A2290130FB02A229F2010C300A1297
:100378008A11ED240A128A11831203130619C5295A
:10038800C62950290130C9070318CA0A0030CA070C
:1003980003304A02E83003194902031CD429D5293D
:1003A800082A4929061DD929DA2950290130C907FF
:1003B8000318CA0A0030CA0700304A026430031919
:1003C8004902031CE829E929082AC901CA017B084E
:1003D800EF000C300A128A117A250A128A117A1053
:1003E80083120313D101082A831203135108003A18
:1003F80003193629013A03195329033A03197C29A9
:10040800013A0319D629082A0800831203135C0845
:100418008400000884000A128A1127260A128A1109
:10042800253A031D182A192AB12A5C0884000130CC
:100438008007C501C6010030CF00FF30C700FF307C
:10044800C8005C0884000008E400640884000A12FC
:100458008A1127260A128A11753A031D342A352A69
:10046800AA2A5D08840083130008DE000230800792
:100478005E0884000008E000840A0008E1005C08C7
:1004880084006408013E80009F2A2030E500013086
:10049800E5026508203E84000A30F2000030F300CF
:1004A8006108F5006008F4000A128A11B8250A12DA
:1004B8008A117208303E831380000A30F20000303F
:1004C800F300831203136108F5006008F4000A12B0
:1004D8008A1138250A128A11730883120313E1005E
:1004E8007208E0006008610403197B2A7C2A982AB4
:1004F8006508031D802A812A4B2A982A6508203E10
:10050800840083130008DE00DF015E08F3005F0843
:10051800F4005B08F5000A128A1142240A128A11B3
:10052800013083120313E50720306506031D9D2A59
:100538009E2A822AC82A640884000A128A11272659
:100548000A128A11753A0319492AAA2A831203132F
:100558005C08840001308007C82A5C088400000811
:1005680084000A128A1127260A128A11DE00DF0186
:100578005E08F3005F08F4005B08F5000A128A11B0
:1005880042240A128A11AA2A08000A30F7008316A0
:100598000313071287128312031387120712DD2A27
:1005A8000630F6003030F500F50BD82AF60BD82ABD
:1005B80000000130F702770A031DE32AE42AD42A4F
:1005C800F030831603138705F03083120313870571
:1005D800033087040716F02A831203130712063024
:1005E800F6003030F500F50BF72AF60BF72A000075
:1005F8000630F6003030F500F50B002BF60B002B1B
:1006080000000630F6003030F500F50B092BF60B2C
:10061800092B0000F0308312031387050330870489
:100628000716162B8312031307122130F500F50B5A
:100638001B2B2130F500F50B1F2BF0308312031311
:100648008705033087040716292B83120313071223
:100658002130F500F50B2E2BF0308312031387059C
:1006680087140716372B8312031307122130F5005E
:10067800F50B3C2B2F300A128A117A250A128A119F
:100688000C300A128A117A250A128A1106300A12C7
:100698008A117A250A128A1101300A128A117A25DA
:1006A8000A128A1102300A128A117A250A128A114C
:1006B800080083120313530855060319642B652B8E
:1006C800B82B5508D3001B30E9005308ED00EE01A4
:1006D8006D08EA006E08EB000A128A111F270A1239
:1006E8008A11F20100300A128A11ED240A128A11C5
:1006F8002330F4000A128A11F2260A128A11831290
:1007080003135308ED00EE016D08D6006E08D700FC
:100718000330D8000A128A1124200A128A11F20121
:10072800F20A00300A128A11ED240A128A11831281
:100738000313530852020318A22BA32BAE2B0E301F
:10074800F4000A128A11F2260A128A11831203137C
:100758008615B82B0130F4000A128A11F2260A1203
:100768008A1183120313861152086F060319BD2BD1
:10077800BE2BDE2B6F08D200F20108300A128A1154
:10078800ED240A128A112830F4000A128A11F2267E
:100798000A128A11831203135208ED00EE016D0844
:1007A800D6006E08D7000330D8000A128A11242018
:1007B8000A128A110800F701F31FE32BE42BEB2B35
:1007C800F209F309F20A0319F30A0130F700F51FD9
:1007D800EE2BEF2BF62BF409F509F40A0319F50AA9
:1007E8000130F706F801F901720873040319FD2BAB
:1007F800FE2B332C0130F6000A2C01300310F20DC9
:10080800F30DFF3E031D022C0130F607F31F0D2CDC
:100818000E2C012C01300310F80DF90DFF3E031DBD
:100828000F2C73087502031D1B2C72087402031C1D
:100838001E2C1F2C262C7208F4027308031CF503C7
:10084800F502781401300310F30CF20CFF3E031D7F
:10085800272C0130F602031D322C332C0E2C77087E
:100868000319372C382C3D2CF809F909F80A031913
:10087800F90A7908F3007808F200080075080319E6
:10088800462C472C4C2C7508031D4B2C4C2C532CF8
:1008980073080A128A112E270A128A11982C7508D1
:1008A800083E84008313000883120313D600840AC9
:1008B8000008D700560857040319632C642C812CB0
:1008C8007508083E84000008D600840A0008D7008E
:1008D800750A84000008D800840A0008D90059085D
:1008E800803ADA005708803A5A02031D7D2C5608D0
:1008F80058020318802C812C982C750A84008313C5
:10090800000883120313D6007508840000085607F0
:10091800D7005708840073088000750A84000130E6
:100928008007840A0318800A0800DF2C9F1401300E
:10093800D407EC2C831603131E0883120313D60066
:10094800D7015608D8005708D9001E08D600D70185
:100958005608D700D6015608D8045708D9040630D7
:100968000310D90CD80CFF3E031DB42C9B2C01306E
:10097800CB070318CC0A0030CC0701304C02F43006
:1009880003194B02031CC92CCA2CEC2CCB01CC013B
:100998000A30F2000030F3005908F5005808F40056
:1009A8000A128A1138250A128A117208831203134F
:1009B800D500D401EC2C831203135408003A031910
:1009C8009A2C013A03199E2C033A0319BB2CEC2CE0
:1009D8000800F400FB2C8030F500092DC030F5002C
:1009E800092D9430F500092DD430F500092D720831
:1009F800003A0319EF2C013A0319F22C033A0319B0
:100A0800F52C013A0319F82C092D7408F5078312FF
:100A180003138712F030831603138705F03083120F
:100A2800031387057508F30004300310F30CFF3E29
:100A3800031D192D730887040716222D831203132B
:100A48000712F030870575080F39870407162C2D13
:100A58008312031307120F30831603138704213000
:100A6800F300F30B352D0800F601F7017208730443
:100A780003193F2D402D752D0130F8004C2D013004
:100A88000310F20DF30DFF3E031D442D0130F8074E
:100A9800F31F4F2D502D432D01300310F60DF70D88
:100AA800FF3E031D512D73087502031D5D2D72084D
:100AB8007402031C602D612D682D7208F4027308FE
:100AC800031CF503F502761401300310F30CF20C45
:100AD800FF3E031D692D0130F802031D742D752D8D
:100AE800502D7708F3007608F2000800F40083120E
:100AF80003138712F030831603138705F03083122F
:100B0800031387057408F20004300310F20CFF3E4B
:100B1800031D892D720887040716922D831203136B
:100B28000712F030870574080F39870407169C2DC3
:100B38008312031307120F3083160313870403303D
:100B48007402031CA82DA92DAE2D2130F200F20B42
:100B5800AB2DB72D0630F3003030F200F20BB22D7A
:100B6800F30BB22D00000800720873040319BD2DA1
:100B7800BE2DEB2D0130F600CA2D01300310F20D09
:100B8800F30DFF3E031DC22D0130F607F31FCD2DD7
:100B9800CE2DC12D73087502031DD42D7208740261
:100BA800031CD72DD82DDE2D7208F4027308031C00
:100BB800F503F50201300310F30CF20CFF3E031DA0
:100BC800DF2D0130F602031DEA2DEB2DCE2D750821
:100BD800F3007408F20008007030831603138F04C2
:100BE800831603178801890183160313811386115D
:100BF8008312031386118316031309111815981607
:100C0800831203139817333083160313990083163E
:100C180003170814831203131F083F3980389F00F5
:100C2800C3309F051F148316031381128111010815
:100C3800F8390338810083308312031381000B11C4
:100C48008B168B17080006308A000408840A82076E
:100C5800003420342034203420342034203420340C
:100C68002034203420342034203400342A342A34E8
:100C7800203441344C3445345234543441342034D3
:100C88002A342A3400344134443443343A34253441
:100C980075340A3400344134443443343A3400342B
:100CA8005334453454343A340034F3008312031374
:100CB8008716F030831603138705F0308312031369
:100CC80087057308F20004300310F20CFF3E031D81
:100CD800682E720887040716712E831203130712F1
:100CE800F030870573080F39870407167B2E8312A7
:100CF800031307120F308316031387042130F20001
:100D0800F20B842E08000A128A11F0250A128A11A1
:100D18000A128A11C9220A128A11FA1C942E952ED7
:100D2800912EFA100A128A11D5260A128A110A126D
:100D38008A1199240A128A117A18A32EA42EA92E90
:100D48000A128A115D230A128A110A128A113521A0
:100D58000A128A11912E0A128A110C28831203137F
:100D68006708F900C42E831203136608DB00793084
:100D7800DC006808DD000A128A1109220A128A11A9
:100D8800790884000A128A1127260A128A11003A61
:100D9800031DCF2ED02EB72E83120313E601E701D1
:100DA8000800013083120313CD070318CE0A003060
:100DB800CE0764304D064E04031DE32EE42EE52EC7
:100DC8000911E8304D06033003194E06031DED2EB8
:100DD800EE2EF12E0915CD01CE010800012F740861
:100DE80084000A128A1127260A128A110A128A1105
:100DF80059260A128A110130F407740884000A126D
:100E08008A1127260A128A11003A031D0C2F0D2F6A
:100E1800F32E08000B1D112F122F182F0B118330E2
:100E2800831203138107FA1471088A00700E830075
:100E3800FE0E7E0E09006A3083120313EC00E601F1
:100E48006908E7006C30E8000A128A11B2260A1213
:100E58008A110800F200831203130C1E342F352F59
:100E68002F2F72089900080064008001840A040684
:0A0E7800031900340406392F323448
:02400E00F42F8D
:00000001FF
