:100000000C9434000C9484000C9484000C948400B0
:100010000C9484000C9484000C9484000C94840050
:100020000C9484000C9484000C9484000C94840040
:100030000C9484000C9484000C9484000C94840030
:100040000C9484000C9484000C9484000C94840020
:100050000C9484000C9484000C9484000C94840010
:100060000C9484000C94840011241FBECFEFD8E0C0
:10007000DEBFCDBFE8E6F0E040E017C0B591A59146
:1000800035912591059107FD0CC095918591EF0162
:10009000F92FE82F05900D92A217B307D9F7FE01AB
:1000A00004C01D92A217B307E1F7E836F40731F751
:0C00B0000E945E000C947900F894FFCFD1
:1000BC008FE380937E0083E084B990EF95B917B8F5
:1000CC0088B98FE08AB9309B02C0289801C0289A61
:1000DC00319B02C0299801C0299A83B182958F70F7
:0600EC0080958BB9F0CFF6
:1000F200EC010E9489000E948800CE010E948A00C1
:06010200CE010E94860000
:040108000C94000053
:04010C000E945C00F1
:02011000089550
:0201120008954E
:0201140008954C
:02000004008278
:03000000E259FFC3
:00000001FF
