:060000000A128A110C280F
:10000800FE00030EF0000A08F1000A128A11B62A4F
:100018000A128A110F280A128A11F6220A128A1164
:10002800FB008313203084004C300A128A11EE2220
:100038000A128A11FA0183010A128A113C2A8312D0
:10004800031352088400000884000A128A11D62279
:100058000A128A11253A031D32283328CB28520860
:10006800840001308007C001C1010030C800FF30A2
:10007800C200FF30C300520884000008DA005A08A2
:1000880084000A128A11D6220A128A11753A031DAF
:100098004E284F28C4285308840083130008D4002E
:1000A80002308007540884000008D600840A00083B
:1000B800D700520884005A08013E8000B928203031
:1000C800DB000130DB025B08203E84000A30F200CE
:1000D8000030F3005708F5005608F4000A128A1198
:1000E800B5210A128A117208303E831380000A3043
:1000F800F2000030F300831203135708F500560886
:10010800F4000A128A113A210A128A11730883121A
:100118000313D7007208D600560857040319952808
:100128009628B2285B08031D9A289B286528B228C0
:100138005B08203E840083130008D400D5015408CE
:10014800F3005508F4005108F5000A128A11E3205B
:100158000A128A11013083120313DB0720305B0671
:10016800031DB728B8289C28E2285A0884000A12D8
:100178008A11D6220A128A11753A03196328C428EB
:10018800831203135208840001308007E2285208C2
:100198008400000884000A128A11D6220A128A11E1
:1001A800D400D5015408F3005508F4005108F500AF
:1001B8000A128A11E3200A128A11C4280800750855
:1001C8000319E728E828ED287508031DEC28ED2811
:1001D800F42873080A128A11E4220A128A113929AA
:1001E8007508083E84008313000883120313CC00AB
:1001F800840A0008CD004C084D0403190429052978
:1002080022297508083E84000008CC00840A0008EA
:10021800CD00750A84000008CE00840A0008CF00CB
:100228004F08803AD0004D08803A5002031D1E291D
:100238004C084E020318212922293929750A8400FD
:100248008313000883120313CC0075088400000888
:100258004C07CD004D08840073088000750A84009F
:1002680001308007840A0318800A0800F601F701A4
:100278007208730403194129422977290130F800CB
:100288004E2901300310F20DF30DFF3E031D4629E0
:100298000130F807F31F512952294529013003106D
:1002A800F60DF70DFF3E031D532973087502031D54
:1002B8005F2972087402031C622963296A2972087B
:1002C800F4027308031CF503F502761401300310D9
:1002D800F30CF20CFF3E031D6B290130F802031DDD
:1002E8007629772952297708F3007608F200080062
:1002F800A7299F14013083120313C907B4291E08C4
:10030800E5000130DF006508E300E4016308E00070
:100318006408E1000A128A11C7220A128A117E298A
:100328000130C4070318C50A0030C5070330450269
:10033800E83003194402031CA229A329B429C401E3
:10034800C501C901B429831203134908003A0319E6
:100358007D29013A03198329033A03199429B429F9
:100368000800720873040319BA29BB29E829013067
:10037800F600C72901300310F20DF30DFF3E031DEF
:10038800BF290130F607F31FCA29CB29BE297308F4
:100398007502031DD12972087402031CD429D529BA
:1003A800DB297208F4027308031CF503F502013017
:1003B8000310F30CF20CFF3E031DDC290130F6029A
:1003C800031DE729E829CB297508F3007408F20012
:1003D800080083160317880189018316031309117E
:1003E8000616861688018113193099001815981673
:1003F8008312031398178316031708148312031321
:100408001F083F3940389F001F14831603138112B9
:1004180081110108F83902388100833083120313EF
:1004280081000B118B168B170800831203135D08CC
:10043800F9002B2A831203135C08D1007930D2000B
:100448005E08D3000A128A1123200A128A11790839
:1004580084000A128A11D6220A128A11003A031D50
:10046800362A372A1E2A83120313DC01DD0108000D
:100478000A128A11ED210A128A117A1C442A452A85
:10048800412A7A100A128A1199220A128A110A122A
:100498008A117C220A128A110A128A115E220A1211
:1004A8008A110A128A117C210A128A11412A0A1217
:1004B8008A110C2883120313861A632A642A7B2A5A
:1004C8000130CA0764304A02031C6B2A6C2A7B2A53
:1004D800CA017B08F2000310720CFB007B08031DA5
:1004E800762A772A792A8030FB007B098800080061
:1004F80083120313061A812A822A982A0130CB070D
:1005080064304B02031C892A8A2A982ACB017B086B
:10051800F2007207FB007B08031D932A942A962A8F
:100528000130FB007B0988000800013083120313A7
:10053800C6070318C70A0030C707C830460647046D
:10054800031DA72AA82AA92A0911E830460603305C
:1005580003194706031DB12AB22AB52A0915C6018F
:10056800C70108000B1DB92ABA2AC02A0B1183300B
:100578008312031381077A1471088A00700E8300AE
:10058800FE0E7E0E0900603083120313E200DC01C8
:100598005F08DD006230DE000A128A1119220A1291
:1005A8008A11080002308A000408840A820700348D
:1005B8004134443443343A34253475340A340034ED
:1005C800F200831203130C1EEA2AEB2AE52A7208AA
:1005D8009900080064008001840A040603190034A5
:0605E8000406EF2A0134B5
:02400E00F43F7D
:00000001FF
